:020000040800F2
:10000000680A0020C101000807240008F91F000841
:100010000524000897030008A92D0008000000002F
:100020000000000000000000000000008F25000814
:10003000D1050008000000008D250008912500086A
:10004000DB010008DB010008DB010008DB01000820
:10005000DB010008DB010008DB010008DB01000810
:10006000DB010008DB010008DB010008DB01000800
:10007000DB010008DB010008DB010008DB010008F0
:10008000DB010008DB010008DB010008A503000814
:1000900099030008DB010008DB010008DB01000810
:1000A000DB01000835260008DB010008DB01000841
:1000B000DB010008DB010008DB010008DB010008B0
:1000C000DB010008DB010008DB010008DB010008A0
:1000D000DB010008792D0008DB010008DB010008C6
:1000E000DB010008DB010008DB010008DB01000880
:1000F000DB010008DB010008DB010008DB01000870
:10010000DB010008DB010008DB010008DB0100085F
:10011000DB010008DB010008DB010008DB0100084F
:10012000DB0100081505000821050008DB010008B7
:10013000DB010008DB010008DB010008DB0100082F
:10014000DB010008DB010008DB010008DB0100081F
:10015000DB010008DB010008DB010008912D00082D
:10016000DB010008DB010008DB010008DB010008FF
:10017000DB010008DB010008DB01000800000000D3
:10018000DB010008DB010008DB010008DB010008DF
:10019000DB010008DB010008DB010008DB010008CF
:1001A0000000000000000000DB010008DFF80CD0B8
:1001B00000F0A0F800480047152F0008680A00204A
:1001C0000648804706480047FEE7FEE7FEE7FEE7F1
:1001D000FEE7FEE7FEE7FEE7FEE7FEE7192600087A
:1001E000AD0100082DE9F05F0546002092469B46D0
:1001F00088460646814640241BE02846414647463D
:10020000224600F066F853465A46C01A914110D370
:1002100011461846224600F04DF82D1A67EB0108EA
:100220004F4622460120002100F044F817EB000958
:100230004E41201EA4F10104DFDC484631462A4627
:100240004346BDE8F09F00000649074A086850434E
:1002500043F23902104408604008704701490860C1
:1002600070470000940000206D4EC64140EA010333
:100270009B0703D009E008C9121F08C0042AFAD25C
:1002800003E011F8013B00F8013B521EF9D2704720
:10029000D2B201E000F8012B491EFBD270470022C8
:1002A000F6E710B513460A4604461946FFF7F0FF75
:1002B000204610BD202A04DB203A00FA02F100207B
:1002C00070479140C2F1200320FA03F31943904094
:1002D0007047202A04DB203A21FA02F000217047FF
:1002E00021FA02F3D040C2F120029140084319469E
:1002F00070470000064C074D06E0E06840F001033F
:1003000094E8070098471034AC42F6D3FFF752FF49
:10031000B0320008D032000870B5044690F83900B9
:10032000202801D0212829D121B31AB394F838000C
:10033000012823D0012084F83800A162A28500257D
:10034000E56394F83900212816D0222084F839007A
:1003500008461346666B216802463046091D00F0C8
:10036000C9FE2068416941F04001416184F838507C
:10037000002070BD012070BD2320E7E7022070BD82
:1003800010B50446FFF7C8FF2068C16841F01001AE
:10039000C160002010BDFEE7014800F02EBB000048
:1003A00098000020014800F028BB000098000020C1
:1003B000F0B58BB0074600200D460490059008204C
:1003C0001B4906900024D1E9000108AECDE90801DF
:1003D00036F81400029035F834000AAB000A8DF8A4
:1003E000000015F834008DF8010005EBC4006A46E2
:1003F0004188090A8DF8021081788DF803108188F0
:10040000090A8DF8041001798DF80510C188090AD0
:100410008DF8061080798DF8070002A9384600F0A3
:100420008DF9641CE4B2022CD2D30BB0F0BD0000F5
:10043000882F000810B50A88C2F30A02A2F580626C
:1004400002804A788B78D20842EA4312C2F30A0249
:10045000A2F5806242808A78CB78920942EA8302D0
:100460000B7942EA8322C2F30A02A2F580628280FB
:100470000A794B79520842EAC312C2F30A02A2F582
:100480008062C2804A79920902724A79C2F30112EB
:100490004272CA8842810A8982814A89C2810A7B62
:1004A00002744A7B4274C989418200F03DFF074CC7
:1004B00020606168401AB0F5FA7F06D94FF4804198
:1004C000034800F02AFF2068606010BD2C00002067
:1004D0000014024070B50C4D00242DED028B9FEDF1
:1004E0000B8A00BFB0EE480A04EBC40005EBC00065
:1004F000F0EE400A064A002102F01AF8641C022CB1
:10050000F0DBBDEC028B70BDD80500200060EA4630
:1005100078000020014800F0B3BC0000E00100209A
:10052000014800F0ADBC00008001002001681823E4
:10053000CAB2103AB2FBF3F2054B6FF30901032A7A
:100540009B5CC36500D9091D8165084670470000A2
:100550008E32000810B5014600208B698A6A4FF080
:10056000C07453B1B3F5005F15D072B1012A0CD03D
:10057000022A0AD0032A09D104E01AB1012A06D0BE
:10058000022A03D1C96AC90100D5012010BDC96A78
:10059000A142FAD010BD002AF7D0012AF2D0022AD7
:1005A000F3D0032AF3D010BD30B50468256825F4D4
:1005B00080252560046863608368402B036803D04E
:1005C00099600068C26030BD9A600068C16030BD4B
:1005D0007047000038B5044600680D460068C00644
:1005E00069D5606B0068016821F001010160204657
:1005F00002F08CFA3048844203D124212F48FFF7BF
:100600004EFE606B02682E4882420AD02D4882421C
:1006100007D02B486030824203D02A4860308242A3
:1006200001D1202022E026491831C8148A421DD069
:10063000244918318A4219D0214978318A4215D08B
:10064000204978318A4211D01D49800230318A42D6
:100650000CD01C4930318A4208D0194990318A4265
:1006600004D0184990318A4200D0800115494831A0
:100670008A4202D91349091F05E01149A8318A426B
:1006800003D910490839086008E00D4B0C4948337C
:1006900010399A4201D9C86000E08860606B006838
:1006A0004560606B0068016841F0010101602068ED
:1006B00001684068009038BD000100200C04002053
:1006C00010600240106402407047000010B558B13D
:1006D000084C491E0BD310F8013B5340DBB234F8F1
:1006E000133083EA1222F4E74FF6FF7010BD104674
:1006F00010BD00008E30000810B5064C04E000BFAD
:1007000010F8013B5340E25C491E89B2F8D2104612
:1007100010BD00008E2F000890F82020012A07D07D
:10072000022A05D0416A41F48021416201207047CC
:10073000006842690A43426100207047F0B590F8B2
:1007400020500468A468012D05D0022D03D0416A11
:1007500041F4802153E014F0406F01D1E5004BD506
:10076000C4F30164022C03D9416A41F4000146E05C
:100770000125A5401D608D684FF4C0739DB1CE6802
:1007800035434E6845EAC605066803EB0417F55184
:100790004FF4C275076805EB04150E697E51097D9B
:1007A000012905D009E00E88CD6845EA4655EBE7FA
:1007B00001684E5946F480764E511179D2F80550B1
:1007C0004FF4C67641EA0525016806EB04168D5103
:1007D0001178D2F801204FF4C47541EA0221026871
:1007E00005EB04155151006803EB0411425842F027
:1007F000010242500020F0BD416A41F40011416203
:100800000120F0BD10B590F82020012A07D0022A5F
:1008100005D0416A41F480214162012010BD3B486E
:10082000D0F8002242F00102C0F80022D0F80022E5
:1008300022F47C52C0F80022D0F800224B6A42EA2F
:100840000322C0F800220A7D02F01F0301229A4011
:10085000D0F81C329343C0F81C32CB69B3B9D0F83E
:100860000C329343C0F80C328C894B6864F31F43FD
:100870004C6900EBC404C4F840320C890B6864F383
:100880001F434C6900EBC404C4F84432CB69012B0C
:1008900016D1D0F80C321343C0F80C320C884B68D8
:1008A00064F31F434C6900EBC404C4F840320C8964
:1008B000CB6864F31F434C6900EBC404C4F84432B2
:1008C0008B69002BD0F804320ED01343C0F80432E9
:1008D0000B69002BD0F8143208D01343C0F814323F
:1008E000096A012904D008E09343EFE79343F5E751
:1008F000D0F81C121143C0F81C12D0F8001221F0DD
:100900000101C0F80012002010BD0000006400408A
:10091000704730B590F82040012C05D0022C03D050
:10092000416A41F480215DE00468002955D02469C2
:10093000A40754D04FF4D874056804EB01142D5962
:1009400015F00405956005682D594ED0ED085560E9
:1009500005682C5904F00204D4604FF4DA74056879
:1009600004EB01142D5905F00F05156105682D598B
:10097000C5F30725956105682C59240C54614FF483
:10098000DC72046802EB0112A4581C700468A458BD
:10099000240A5C700468A458240C9C700468A25853
:1009A000120EDA704FF4DE72046802EB0112A458E2
:1009B0001C710468A458240A5C710468A458240CAF
:1009C0009C710468A258120EDA71006881B1016945
:1009D00041F020010161002030BDE468A8E7416AD0
:1009E00041F400114162012030BD6D0D1560AFE78B
:1009F000C16841F02001C160EDE72DE9F05F0546D7
:100A0000006800244669D0F804908768D0F80CB0DC
:100A1000D0F810A0D0F81880F10748D0F90714D00A
:100A200001218160B80703D5284600F010FA0CE0D8
:100A3000780702D54FF4006407E0380702D54FF479
:100A4000805402E0284600F001FAF80516D529681E
:100A50004FF480708860B80503D5284600F0F9F996
:100A60000CE0780502D544F4005407E0380502D5BF
:100A700044F4804402E0284600F0EAF9F80316D571
:100A800029684FF480308860B80303D5284600F009
:100A9000E2F90CE0780302D544F4004407E038039F
:100AA00002D544F4803402E0284600F0D3F9300740
:100AB00007D55FEACB6004D52968102044F40074A0
:100AC000C86070074FF0080707D55FEA0B7004D5C0
:100AD0002868C760284600F05FF9B00706D5286887
:100AE000C068800702D0284600F058F9700607D584
:100AF0005FEACA6004D52968102044F48064086164
:100B0000B00607D55FEA0A7004D528680761284651
:100B100000F06CF9F00606D528680069800702D05D
:100B2000284600F064F9B00308D55FEAC96005D52E
:100B3000296810204860284600F05AF9F00307D5CC
:100B40005FEA097004D528684760284600F084F9F8
:100B5000300446D55FEA497040D5F00504D55FEA18
:100B6000C87001D044F00104B00504D55FEA887074
:100B700001D544F00204700504D55FEA487001D540
:100B800044F00404300529D518F0700F26D008F081
:100B90007000402815D006DC102809D020280AD083
:100BA000302816D10AE050280ED0602811D10EE06E
:100BB00044F008040DE044F010040AE044F020047E
:100BC00007E044F0400404E044F0800401E044F411
:100BD00080742868816921F070018161296804208E
:100BE0004860002C05D0686A204368622846FFF7F9
:100BF0008FFEBDE8F09F70B5040003D094F820008C
:100C000010B104E0012070BD204600F081F820689A
:100C1000016821F00201016000F086FB054605260F
:100C200004E000F081FB401B0A2811D820684068CE
:100C30008007F6D42068016841F00101016000F0EE
:100C400073FB05460BE000F06FFB401B0A2806D93A
:100C5000606A40F40030606284F82060D2E7206867
:100C60004068C007EFD0207E0128206801683DD091
:100C700021F080010160607E01282068016838D081
:100C800021F040010160A07E01282068016833D076
:100C900021F020010160E07E0128206801682ED04B
:100CA00041F010010160207F01282068016829D0EF
:100CB00021F008010160607F01282068016824D0CC
:100CC00021F004010160D4E902010843D4E90412CF
:100CD000114308436168491E08432168C861002028
:100CE0006062012084F82000002070BD41F0800186
:100CF000C0E741F04001C5E741F02001CAE721F01B
:100D00001001CFE741F00801D4E741F00401D9E731
:100D100010B586B0044614216846FFF7C0FA1B4997
:100D2000206888422FD11A480021026842F00072E0
:100D30000260006800F000700590154810380268E5
:100D400042F0080202600068022200F008000590EC
:100D50000320CDE90210CDE9000209200490694684
:100D60000C4800F0EBF900220121132000F04CFBAD
:100D7000132000F03BFB01221146142000F044FB3D
:100D8000142000F033FB06B010BD000000640040EA
:100D900040380240000C02407047000010B58AB095
:100DA0000446002007900146089007AB6A4620469B
:100DB000FFF7AFFD0A4884420FD10098A0F201204E
:100DC0000A280AD80749C0B20870074900EB40005A
:100DD00001EBC00007A902F057F80AB010BD0000EF
:100DE000980000205F000020EC0200207047704750
:100DF0007047000070B5044690F82000012804D028
:100E0000606A40F40020606218E0022084F820004C
:100E10002068016821F00101016000F085FA0546B3
:100E20000EE000BF00F080FA401B0A2808D9606A73
:100E300040F400306062052084F82000012070BD7D
:100E400020684068C007EDD1606270BD7047704790
:100E50007047704770477047704790F83510022907
:100E600003D08021416501207047052180F83510AD
:100E70000068016821F00101016000207047000056
:100E80002DE9F84304464FF00009CDF8009063487F
:100E90004FF41651A56D0068B0FBF1F72E6894F879
:100EA0005C10082000FA01F131420FD021680A6875
:100EB00052070BD50A6822F004020A6094F85C100D
:100EC0008840A860606D40F00100606594F85C1097
:100ED0004FF0010808FA01F0304208D02168496952
:100EE000090604D5A860606D40F00200606594F8C2
:100EF0005C1004208840304208D0216809688907C6
:100F000004D5A860606D40F00400606594F85C1042
:100F100010208840304218D021680968090714D58C
:100F2000A86020680168490304D50068000308D55B
:100F3000A16C07E00168C90503D4016821F008012C
:100F40000160216C09B12046884794F85C1020208C
:100F50008840304231D021680968C9062DD5A86083
:100F600094F8350005282068016806D0490347D564
:100F7000006800031DD4616C1CE021F016010160C3
:100F80002068416921F080014161206C08B9A06CA2
:100F900020B12068016821F00801016094F85C101C
:100FA0003F208840A86084F8349084F83580216D13
:100FB0001FE0E16B09B120468847606D00282BD007
:100FC000606DC00714D0052084F8350020680168E2
:100FD00021F0010101600098401C0090B84203D844
:100FE00020680068C007F6D184F8349084F8358012
:100FF000E16C002910D001B02046BDE8F04308475D
:101000000168C905D5D4016821F01001016084F898
:10101000349084F83580CCE7BDE8F8839000002058
:101020002DE9F041044600F07FF906465CB1002549
:1010300084F83450022084F835002068016821F0DB
:10104000010101600DE00120BDE8F08100F06CF9C4
:10105000801B052805D920206065032084F8350011
:10106000F2E720680068C007F0D1226811682048C4
:101070000140D4E901031843D4E90336334318434C
:1010800063691843A3691843E3691843236A184343
:101090000843616A042903D1D4E90B1319430843B7
:1010A000106020684069666A20F0070130460E43F0
:1010B000012704280CD1A06A0643E06A40B120460B
:1010C000FFF748FA20B14020606584F83570BAE730
:1010D000206846612046FFF729FA94F85C203F21FA
:1010E00091408160656584F835700020ACE70000B0
:1010F0003F8010F070B5044690F8340000250128B8
:101100000CD0012084F8340094F835600020012EC2
:1011100006D084F834000225284670BD022070BD38
:10112000022684F8356060652046FFF73DFA2068A6
:10113000016841F001010160EEE700002DE9F84F80
:1011400000224FF0010803254FF00F0E0B6808FA3C
:1011500002F42340A3426ED14E68012E05D0022E28
:1011600003D0112E01D0122E12D186684FEA420C04
:1011700005FA0CF7BE43CF6807FA0CF737438760D0
:101180004668A6430C79C4F3001494403443446089
:10119000C668570005FA07FC8C6826EA0C06BC40B6
:1011A0003443C4604C68022C01D0122C13D1D408F3
:1011B00000EB8404A346D4F8209054074FEAD46A85
:1011C0000EFA0AF629EA06090E6906FA0AF646EA4E
:1011D0000906CBF8206004680E7924EA0C0406F0B6
:1011E0000306BE40264306604C68E4006FD53B4CC6
:1011F000266846F480462660246822F0030604F43C
:1012000080440094364C3444A446D4F808489607E9
:10121000360F0EFA06F7BC43324FB84201D1002711
:101220002EE0314FB84201D1012729E02F4FB842BB
:1012300002D1022724E04AE02D4FB84201D1032712
:101240001EE02C4FB84201D1042719E02A4FB842C2
:1012500001D1052714E0294FB84201D106270FE03C
:10126000274FB84201D107270AE0264FB84201D1E3
:10127000082705E0244FB84201D1092700E00A27DA
:10128000B7402743CCF80878204E34684F689C4319
:10129000FF0300D51C4334601C4E361D34684F6874
:1012A0009C43BF0300D51C433460184E0836346895
:1012B0004F689C43FF0200D51C433460134E0C362C
:1012C00034684F689C43BF0200D51C433460521CF5
:1012D000102AFFF43BAFBDE8F88F0000443802400D
:1012E00000300140000002400004024000080240BB
:1012F000000C02400010024000140240001802409E
:10130000001C02400020024000240240003C01403A
:101310000069084000D001207047426931EA0202AA
:1013200000D109048161704701488068704700005E
:10133000840000200248816802781144816070476F
:10134000840000200B4810B5016841F40071016071
:10135000016841F480610160016841F480710160BD
:10136000032000F071F8002000F006F800F024F8E7
:10137000002010BD003C024070B50D4D04464FF4F6
:101380007A712878B1FBF0F00A490968B1FBF0F0F6
:1013900000F006FB48B9102C07D200222146501E4F
:1013A00000F032F800206C6070BD012070BD0000BC
:1013B00084000020900000200B4882B0016841F4B6
:1013C00080410160006800F4804000900648001FE2
:1013D000016841F080510160006800F08050009089
:1013E000052002B000F030B844380240002809DB84
:1013F00000F01F02012191404009800000F1E0202F
:10140000C0F8001170470000F0B40E4B1B680C468A
:10141000C3F30223C3F10705042D00D90425191DC8
:10142000072901D2002300E0DB1E012606FA05F1A0
:10143000491E214099409E40761E16403143F0BC23
:1014400001F0E7BC0CED00E0064900F00702086877
:101450004FF6FF03184040EA0220034A1043086099
:10146000704700000CED00E00000FA052DE9F047A0
:101470000E46050065D0DFF81481D8F80000F7B2F9
:1014800000F00F00B04207D288F80070D8F80000D2
:1014900000F00F00B04254D128683D4C810712D5AE
:1014A000400703D5206840F4E0502060287800070A
:1014B00003D5206840F4604020602068A96820F0CF
:1014C000F000084320602878C0072DD030496868B4
:1014D0000839012812D0022813D0032811D0096836
:1014E000890700292DDA216821F0030101432160D9
:1014F000FFF71AFF814641F2883A0EE00968890336
:10150000EFE709688901ECE7FFF70EFFA0EB09019F
:10151000514502D90320BDE8F0872068696800F0D2
:101520000C00B0EB810FEFD1D8F80010404601F06D
:101530000F01B14207D90770006800F00F00B042F8
:1015400001D00120E7E72878400705D52068E96841
:1015500020F4E050084320602878000706D5206872
:10156000296920F4604040EAC100206000F038F8AA
:101570002168084AC1F30311515CC840064908605C
:1015800006480068FFF7F8FE0020C4E7003C024070
:1015900008380240963200089000002088000020A1
:1015A0000448054900680968044AC1F38221515C76
:1015B000C84070479000002008380240A63200085A
:1015C0000448054900680968044AC1F34231515C86
:1015D000C84070479000002008380240A63200083A
:1015E000154810B5006810F00C02144813D01449C7
:1015F000042A0FD0082A0ED10F4C241F226823681A
:1016000002F03F025B0207D52068C0F38810A0FB00
:10161000010106E0084610BD2168C1F38811A1FB55
:1016200000010023FEF7DEFD2168C1F30141491CE2
:101630004900B0FBF1F010BD083802400024F4006E
:10164000001BB7002DE9F84F040076D02078DFF8B2
:1016500038A3CE4DC00749D0DAF800105046C1F388
:101660008101012908D00068C0F3810002280AD155
:10167000281D0068400206D52868800336D56068BA
:101680000028E2D032E06068B0F5803F10D0B0F5BD
:10169000A02F286810D020F480302860286820F41B
:1016A000802028606068A0B1FFF73EFE06460CE08F
:1016B000286840F48030F4E740F480202860F7E7A1
:1016C000FFF732FE801B642873D828688003F7D5A3
:1016D0000CE0FFF729FE064605E000BFFFF724FEF9
:1016E000801B6428F0D828688003F7D42078DFF8BE
:1016F000A08280074FF000093ED5DAF8001050466E
:1017000011F00C0F09D00068C0F3810002280BD142
:101710009D48001F0068400206D42868800715D540
:10172000E068012809D111E0E068B8B10120C8F8EB
:101730000000FFF7F9FD064605E020E1FFF7F4FDA4
:10174000801B0228C0D828688007F7D5286821693F
:1017500020F0F80040EAC10028600DE0C8F80090D1
:10176000FFF7E2FD064604E0FFF7DEFD801B0228DE
:101770001FD828688007F7D42078000722D5824E2A
:10178000844861696C3671B101210160FFF7CCFDBD
:10179000074604E0FFF7C8FDC01B022809D83068DF
:1017A0008007F7D50EE0C0F80090FFF7BDFD0746B3
:1017B00005E082E0FFF7B8FDC01B02287DD8306845
:1017C0008007F7D42078400768D5DFF8BCB1002740
:1017D0000BF1380BDBF80000C0000BD4DBF8001075
:1017E00041F08051CBF80010DBF80000012700F039
:1017F00080500090684E3068C00510D4306840F4C6
:1018000080703060FFF790FD009005E0FFF78CFDE1
:101810000099401A022850D83068C005F6D55A4EB3
:10182000A068683601280FD00528306810D020F055
:1018300001003060306820F004003060A068B8B16A
:10184000FFF772FD00900FE0306840F00100F4E710
:1018500040F004003060F7E7FFF766FD0099411A99
:1018600041F28830814266D830688007F4D50EE0B6
:10187000FFF75AFD009007E0FFF756FD0099411A67
:1018800041F28830814256D830688007F4D42FB1B5
:10189000DBF8001021F08051CBF80010A069D0B324
:1018A000DAF800205146C2F38102022A4AD0022807
:1018B000484607D0C8F8600000E03CE0FFF734FD80
:1018C00004463BE04746C8F86000FFF72DFD06469A
:1018D00005E000BFFFF728FD801B02282BD82868F1
:1018E0008001F7D4D4E907010843A16A2B4A4908CB
:1018F00002EB0141626A41EA8211084394F82C101C
:1019000040EA01612048001F016001203866FFF7AE
:101910000BFD044605E034E0FFF706FD001B02283E
:1019200009D828688001F7D52BE000BFFFF7FCFC41
:10193000001B022802D90320BDE8F88F2868800127
:10194000F4D41EE00128F7D00868E26900F48001B1
:10195000914214D1226A00F03F0191420FD147F623
:10196000C071626A0140914209D1A26A00F440311B
:10197000914204D1E16A00F07060884201D00120F8
:10198000DAE70020D8E700000838024000380240BB
:1019900000004742800E4742007000400000FFFFF9
:1019A00010B5401EB0F1807F01D3012010BD4FF073
:1019B000E02460610F21601701F02BFA0020A06184
:1019C00007202061002010BD7047704770B590F867
:1019D0003C20012A32D0012480F83C40022280F8C9
:1019E0003D2003685A689D6822F070060A683243F9
:1019F0005A60134B02689A4214D0B2F1804F11D052
:101A0000104B9A420ED0104B9A420BD00F4B9A4279
:101A100008D00F4B9A4205D00E4B9A4202D00E4B83
:101A20009A4204D1496825F080031943916080F8F7
:101A30003D40002180F83C10084670BD022070BD7A
:101A4000000001400004004000080040000C00407D
:101A500000040140004001400018004010B504009F
:101A600003D094F83D0010B107E0012010BD002024
:101A700084F83C00204600F00DF8022084F83D0078
:101A8000211D206800F092FF012084F83D00002015
:101A900010BD000008B500680B49884212D10B4800
:101AA000016841F0010101600068002200F00100BE
:101AB000009011461920FFF7A7FCBDE80840192047
:101AC000FFF794BC08BD000000000140443802400C
:101AD0000168CA6842F00102CA600068816801F0CA
:101AE0000701062903D0016841F0010101600020CF
:101AF000704770B5044690F83C00012817D00125C6
:101B000084F83C50022084F83D002068826822F06E
:101B1000770222F47F4282600868502830D00DDCC2
:101B200020284DD005DC98B310283BD148E0022096
:101B300070BD302844D0402834D139E0602828D006
:101B4000702806D0B0F5805F2CD0B0F5005F29D1A9
:101B50000AE0CB68D1E90121206800F08BFF206802
:101B6000816841F0770109E0CB68D1E90121206863
:101B700000F080FF2068816841F48041816011E0BD
:101B8000CA684968206800F087FF5021206807E094
:101B900016E0CA684968206800F08FFF602120685D
:101BA00000F072FF84F83D50002084F83C0070BDC6
:101BB000CA684968206800F06FFF40212068EFE79D
:101BC000226801461046EBE7704770B5044600688E
:101BD00001694FF00005C943890715D4C168C9439D
:101BE000890711D4E91E01610120207720688069EE
:101BF0008007204602D0FFF7E7FF04E000F098F8E6
:101C0000204600F096F8257720680169C943490706
:101C100017D4C168C943490713D46FF004010161A7
:101C2000022020772068806910F4407F204602D08F
:101C3000FFF7CAFF04E000F07BF8204600F079F8D7
:101C4000257720680169C943090716D4C168C943CB
:101C5000090712D46FF00801016104202077206881
:101C6000C0698007204602D0FFF7AEFF04E000F015
:101C70005FF8204600F05DF8257720680169C943C8
:101C8000C90617D4C168C943C90613D46FF010013F
:101C90000161082020772068C06910F4407F204649
:101CA00002D0FFF791FF04E000F042F8204600F078
:101CB00040F8257720680169C943C90708D1C16880
:101CC000C943C90704D1891E0161204600F032F8DA
:101CD00020680169C943090609D4C168C9430906D6
:101CE00005D46FF0800101612046FFF76DFE20688A
:101CF0000169C943490609D4C168C943490605D4E5
:101D00006FF040010161204600F015F8206801697C
:101D1000C94389060BD4C168C943890607D46FF04B
:101D2000200101612046BDE87040FFF74EBE70BD46
:101D300070477047704770477047000070B5026881
:101D400004461068D168536910F00F0F52D003F0A9
:101D5000010501F490762E435FD0C20705D0CA0575
:101D600003D5E26B42F00102E263420705D5DA07D0
:101D700003D0E26B42F00202E263820705D5DA0784
:101D800003D0E26B42F00402E263020707D501F0E0
:101D900020022A4303D0E26B42F00802E263E26BC6
:101DA000002A33D0800604D5880602D5204600F0EC
:101DB000D1FE20684069E16BC0F38010090700D4B0
:101DC00028B3204600F093FE2068416949061AD5E1
:101DD000416921F040014161606BA0B11B4901657F
:101DE000606BFFF73AF8002810D0606B016DBDE81A
:101DF00070400847830610D58B060ED52046BDE8F7
:101E0000704000F0A7BE2046FFF796FF70BD204649
:101E1000FFF792FF0020E06370BD030606D50B06B6
:101E200004D52046BDE8704000F074BF4006F3D5ED
:101E30004806F1D5D168204621F04001D16020212B
:101E400084F8391000F0D7F870BD0000DF2A0008D0
:101E500070B5040004D094F83900002510B106E0F4
:101E6000012070BD84F83850204600F023F824206B
:101E700084F839002068C16821F40051C16020460F
:101E800000F0B4FE2068016921F4904101612068EE
:101E9000416921F02A0141612068C16841F4005183
:101EA000C160E563202084F8390084F83A000020FE
:101EB00070BD00002DE9F04387B006461421684646
:101EC000FEF7EDF94548DFF810811438D6F800C068
:101ED0000024424902220123032507154FF440390B
:101EE000C44536D1D1F800C04CF0100CC1F800C088
:101EF000096801F010010591016841F002010160DB
:101F00000068694600F002000590C0208DE82D00B1
:101F1000072004903248FFF711F9334D314828600B
:101F20007804C5E90104C5E903476C61AC61C5E902
:101F3000074928466C62FFF773F808B1FEF7C4FB47
:101F40007563002211462520AE63FFF75DFA252058
:101F50003CE0DFF89880C4453AD1D1F800C04CF09D
:101F6000200CC1F800C0096801F02001059101684A
:101F700041F0400101600068694600F040000590B2
:101F80004FF484408DE82D00082004901848FFF796
:101F9000D5F8154D13486035183828608005C5E917
:101FA0000104C5E903476C61AC61C5E907492846EE
:101FB0006C62FFF735F808B1FEF786FB7563002207
:101FC00011464720AE63FFF71FFA4720FFF70EFACE
:101FD00007B0BDE8F0830000001001404438024023
:101FE00000040240406402408001002000140140CF
:101FF0000018024070477047FEE700002DE9F041ED
:1020000004004FF0000609D0634D2068C5F81900A0
:10201000207968772078A52803D0B9E00120BDE8B1
:10202000F0810521204600F0DFFE0127012837D18D
:1020300061782046093100F0B9FE012830D1B4F8AA
:102040000500012640F201235449A0F201229842E2
:1020500050D016DC05282FD008DC01281AD0022821
:102060001CD003281DD004281AD11FE0A0F58070D1
:1020700001382ED0012831D0032834D0042879D15A
:1020800035E00A2A76D2DFE802F0753A3F46494E3B
:10209000545E666BD4F80700086011E0E079A87020
:1020A00068E03E482022E11D0B3031E0B4F8070023
:1020B0006881607A28735DE0D4F8070041F82B0F3F
:1020C000D4F80B004860B4F80F000881607C887277
:1020D00050E0D4F80700C5F80D004BE0D4F8070035
:1020E000C5F8110046E0B4F80700288142E0E07925
:1020F000E8703FE029481B22E11D363008E0274800
:102100001022E11D513003E024481022E11D61300E
:10211000FEF7ACF82EE0E07928712BE0B4F8070068
:10212000A5F8050026E0E079A871000922D16F70BA
:1021300020E0D4F807006862B4F80B002885607BC3
:1021400085F82A0016E0D4F80700C5F81E00B4F898
:102150000B0068840EE0D4F80700C5F8150009E00C
:10216000D4F8070041F8710FD4F80B004860D4F898
:102170000F008860084809341930B0F80100015D8B
:10218000A52902D12044FFF739FF0EB12F7001E0DD
:1021900000202870304642E734000020540200201E
:1021A0000F4810B50D4901600321416000214FF433
:1021B00010228160C0E903124FF4001242610176DF
:1021C00041768176C17601774177FEF714FD0028CC
:1021D00003D0BDE81040FEF777BA10BD00640040A0
:1021E000980000200D4808B5016841F480010160A5
:1021F0000068002200F48000009011463920FFF7AB
:1022000003F93920FFF7F2F8002211463A20FFF7D0
:10221000FBF8BDE808403A20FFF7E8B83038024044
:1022200000B587B014216846FEF739F81A48002136
:10223000026842F040020260026802F04002059229
:10224000026842F001020260026802F00102059297
:10225000026842F002020260026802F00202059285
:10226000026842F008020260026802F00802059269
:10227000026842F0800202600068029100F0800073
:1022800005904FF44050CDE9000169460348FEF740
:1022900055FF07B000BD000030380240000C02407E
:1022A00010B586B00024174800940194029403945A
:1022B000049413490594016044F29F11C0E901148C
:1022C0003121C0E9031444618461FFF7C7FB08B101
:1022D000FEF7FAF94FF48050009069460948FFF77D
:1022E00008FC08B1FEF7F0F9049404A90548059428
:1022F000FFF76CFB002801D0FEF7E6F906B010BD31
:1023000000000140C00000200C4810B50A490160DF
:102310000B494160002181600C22C160C0E90412B8
:102320008161C161FFF794FD002803D0BDE8104032
:10233000FEF7CAB910BD00000010014000010020E6
:10234000A08601000C4810B50A4901604FF4E13144
:102350004160002181600C22C160C0E904128161EA
:10236000C161FFF775FD002803D0BDE81040FEF7FE
:10237000ABB910BD0014014040010020F0B51E486B
:10238000417802291BD0841C077823781B4D86686E
:10239000002203EB430305EBC303BE421FD0012918
:1023A0000DD1D968002900DA4942154B848843F8D9
:1023B0002410641CA1B28180062901D04270F0BDB6
:1023C0000022012153F82140491CC9B222440629A8
:1023D000F8D30521B2FBF1F10161022109E00029E6
:1023E000EDD1DA60617801EB410105EBC101CA6012
:1023F00001214170F0BD000064000020EC020020CB
:10240000C0050020FEE77047A0B1D0ED101AC0ED66
:10241000111A90ED0F1A80ED101AC0ED060A80ED2A
:10242000070A30EEC00A80ED0F0A017829B10129B0
:102430003BD078E09FED3D0A7047D0ED010A60EE99
:10244000801AC0ED091AD0ED0A0A90ED022A42EE78
:10245000000A30EE410AC0ED0A0A90ED0D2A80ED27
:102460000E2A90ED0C2A80ED0D2A80ED0C0A90EDDD
:10247000031A21EE001A80ED0B1A90ED050AF4EE16
:10248000C00AF1EE10FA09DCB1EE400AF4EEC00A1F
:10249000F1EE10FA02D390ED0A0A01E080ED0A0A8B
:1024A00031EE800A30EE010A2BE070EE410A90ED29
:1024B000012A20EE822A80ED092AD0ED020A60EE80
:1024C000800AC0ED0A0AD0ED0D2A72EE200AC0ED96
:1024D0000E2AD0ED0C2AC0ED0D2AF0EE002A01EEF6
:1024E000620A30EE210A80ED0C0A90ED031A21EE0B
:1024F000000A80ED0B0A30EE800AD0ED080A30EEBB
:10250000200A80ED080AD0ED040AB4EEE00AF1EEEC
:1025100010FA06DCF1EE600AB4EEE00AF1EE10FA11
:1025200001D2C0ED080A90ED080A704700000000D3
:10253000002828D0002A26D0017092ED001A80EDE4
:10254000011A92ED011A80ED021A92ED021A80ED45
:10255000031A80ED040A9FED0C0AC0ED050A80ED18
:102560000E0A80ED0D0A80ED0C0A80ED080A80ED60
:102570000B0A80ED0A0A80ED090A80ED110A80ED50
:10258000100A80ED0F0A7047000000007047704786
:10259000FEF7D0BE30B593B030216846FDF77FFE20
:1025A00014210CA8FDF77BFE19480025016841F0B5
:1025B00080510160006800F080501190154801685A
:1025C00041F4404101600068022400F44040119051
:1025D00001200090000401908001CDE90640062012
:1025E0000890A820CDE9090404200B906846FFF765
:1025F00029F80CA90F2081E831004FF4A0500F906A
:10260000E002109005210CA8FEF730FF13B030BD9A
:1026100040380240007000400548016841F47001F4
:10262000016003494FF00060803908607047000086
:1026300088ED00E02DE9F05FCB4E0024B06A401C2D
:10264000B062401C00D1B462C848FFF7BEFAC84D62
:102650004FF4805949462846FEF75AFE30704FF431
:10266000005AB04651462846FEF752FE7070C148E7
:10267000DFF804B3C14F407AC14E012814D00228BC
:1026800073D0032810D00020395C401C022826F8A3
:102690001140F9DB98F82800C00767D1BDE8F05F6A
:1026A000B749B848FDF784BE4946A9462846FEF713
:1026B0002FFEB54D28B151464846FEF729FE60B1C0
:1026C00014E0C8F80840D8F80410491CC8F80410F1
:1026D00014290BDB4FF0FF3007E0D8F80810491C35
:1026E000C8E90141142901DB01202860286840F66F
:1026F0008C210246484300EE100AA449DFF894A258
:10270000B8EEC00A88ED030A8BF800200B78A049C8
:10271000022B2CD000258B46B146785DD8ED030AFC
:1027200000EB40010BEBC10005EBC501B0F9020065
:102730000AEBC10600EE100A3046B8EEC00AFFF7F9
:1027400063FE96ED080A7A5D6D1CBDEEC00A022D8F
:1027500010EE100A29F81200DFDBFFF70FFE8E489B
:102760000178002996D0047094E7F1E0FAE03B7814
:10277000B94603EB43030F4601EBC301C9680029C7
:1027800000DA494200EE101A8449F8EEC00A91EDD1
:10279000000AB8EE401A80EE810A88ED090AD8F8DE
:1027A000141011B1491EC8F81410D8F81C10D9B172
:1027B000491EC8F81C1041F270714A4300EE902A7D
:1027C000F8EEE00AC8ED030A98F80010012901D0DC
:1027D00021B10FE098F8011021B10BE098F8011039
:1027E000012907D1C8F81C4000EE900AF8EEE00A73
:1027F000C8ED030A68480178F1B30470D8F81400F2
:10280000A0B9C820C8F81400FDF71EFDC00736D0D7
:1028100063480089322809D9D8F81800401CC8F844
:102820001800C820C8F81040C8F81C00BB4657461E
:102830000024B24619F804004E4600EB40010BEBB1
:10284000C100D8ED030AB0F9020000EE100A04EB53
:10285000C40007EBC005B8EEC00A2846FFF7D4FD58
:1028600095ED080A325D641CBDEEC00A022C10EE24
:10287000100A2AF8120000E017E0DBDB0AE7D8F8BC
:102880002000C8F81040401CC8F82000286840F616
:102890008C21404228608BF80000484300EE100A6B
:1028A000B8EEC00A88ED030AC0E710EE100A3D49F1
:1028B00008443D498842D8F8100002D2401CC8F8AC
:1028C0001000B8F8021088421BD1C8F81040FDF77C
:1028D000BBFC4FF4967190FBF1F201FB120000F586
:1028E0009670A8F80200286840F68C2140422860C3
:1028F0008BF80000484300EE100AB8EEC00A88EDDD
:10290000030ABB4657460024B24619F804004E4657
:1029100000EB40010BEBC100D8ED030AB0F9020057
:1029200000EE100A04EBC40007EBC005B8EEC00AC5
:102930002846FFF769FD95ED080A325D641CBDEE7F
:10294000C00A022C10EE100A2AF81200DDDBA1E604
:10295000002059463A5C401C022826F812400C70B0
:10296000F8DB97E6BDE8F09F00000020C0000020E3
:10297000000C02404002002064000020660000209D
:10298000D2020020980000206C000020650000208A
:10299000EC020020D8050020350000207400002043
:1029A000A5020020323333C298999901F0B502682C
:1029B000254C264D264E274F274B4FF0804CA042EA
:1029C00009D0604507D0A84205D0B04203D0B84234
:1029D00001D0984204D122F0700E4A6842EA0E02F9
:1029E000A0421BD0604519D0A84217D0B04215D0E4
:1029F000B84213D0984211D0184DA8420ED0184DAD
:102A0000A8420BD0174DA84208D0174DA84205D0B8
:102A1000164DA84202D0164DA84203D122F44075AB
:102A2000CA682A434D6922F080022A4302608A68FC
:102A3000C2620A688262A04201D0984201D109694B
:102A4000016301214161F0BD00000140000400402C
:102A500000080040000C004000040140004001401C
:102A6000004401400048014000180040001C0040A4
:102A70000020004010B5846842EA032224F47F4419
:102A80000A432243826010BD826822F070020A432A
:102A900042F007018160704710B5036A046A24F0B0
:102AA00001040462846924F0F00444EA021423F06F
:102AB0000A020A438461026210BD10B5036A23F062
:102AC000100303628369046A23F4704343EA023209
:102AD00024F0A00343EA01118261016210BD10B528
:102AE000806B0021C185C184FFF726F910BD016804
:102AF000CA6822F49072CA6001684A6922F0010231
:102B00004A61202180F83A10704700000D4910B545
:102B1000884205D1BDE810400B490C48FDF78ABC3E
:102B20000B4988420CD10849C822243101F1C80060
:102B3000FDF79CFB0448BDE810402430FFF75EBA67
:102B400010BD0000000100200C0400204002002005
:102B50004001002010B590F83A10222901D002203F
:102B600010BD8168B1F5805F11D00169002901684D
:102B70001FD0496801F07F03816A4A1C82620B7092
:102B8000C18D491E0904090CC18518D02BE00269CA
:102B9000816A002A0268526805D0D2B20A80816A2E
:102BA000491C8162ECE7C2F308020A80816A891C31
:102BB000F7E74A68816A4B1C83620A70E0E70168A4
:102BC000CA6822F02002CA600168CA6822F48072D2
:102BD000CA6001684A6922F001024A61202180F836
:102BE0003A10FFF707FA002010BD00002DE9F04170
:102BF000044600680169E26821F440511143016113
:102C00002169A068E26908436169114308432168AA
:102C1000CA6849F20C639A430243CA60206841695A
:102C2000A26921F4407111434161E06919276425CB
:102C30003226B0F5004F354A354920684FF000087C
:102C400006D0884201D0904236D1FEF7B9FC35E07B
:102C5000884201D0904202D1FEF7B2FC01E0FEF7BB
:102C60009FFC61684A18A0FB070148EB0803FDF7C9
:102C7000B9FA0146B0FBF5F00201B1FBF5F06FF0D7
:102C80001803584301EB800006EBC000B0FBF5F0E1
:102C900000F0F80002EB4002B1FBF5F0584301EB05
:102CA000800006EBC000B0FBF5F000F007002168E3
:102CB00010448860BDE8F081FEF772FC61688B0FFC
:102CC0008A00A0FB0701FDF78DFA0146B0FBF5F085
:102CD0006FF01802504301EB800006EB0010B0FBD0
:102CE000F5F000F0F002B1FBF5F002EB0012B1FBE1
:102CF000F5F06FF01803584301EB800006EB00106D
:102D0000B0FBF5F000F00F00D1E700000014014027
:102D10000010014090F83910212901D0022070479D
:102D20008168B1F5805F016A0BD04A1C02620268BB
:102D300009785160C18C491E0904090CC1840ED068
:102D400017E009880268C1F3080151600169002990
:102D5000016A02D0491C0162ECE7891CFBE70168AB
:102D6000CA6822F08002CA600068C16841F0400170
:102D7000C16000207047000010B50448FEF7DEFF78
:102D8000BDE8104024210148FDF724BC00010020CB
:102D900010B50448FEF7D2FFBDE81040C821014835
:102DA000FDF718BC40010020FEE7000030B50C46DE
:102DB000050014D0022C12D90A48A11E0288284608
:102DC000FDF784FC2919C2B211F8023C9A4206D1DF
:102DD00011F8011CB1EB102F01D1012030BD0020F2
:102DE00030BD00006000002030B50C4605000ED05C
:102DF000022C0CD9601E81B2FF222846FDF77CFC14
:102E0000291911F8011C814201D1012030BD002097
:102E100030BD0907090E002804DB00F1E02080F82E
:102E20000014704700F00F0000F1E02080F8141D3E
:102E3000704702E008C8121F08C1002AFAD1704783
:102E40007047002001E001C1121F002AFBD170472A
:102E500000B58BB000200121CDE90601089100905A
:102E60000190029003900590049069460548FDF793
:102E7000C9FC0448FDF7BEFF02210248FDF74CFCE7
:102E80000BB000BD9800002010B5B0F900400481DF
:102E90000A8853BA03804A8852BA42808A8852BA52
:102EA000828089791A1B8171B2F5805F02DDC16869
:102EB000491E04E012F5805F02DAC168491CC16056
:102EC000A34202DA02F5005101E0A2F50051002907
:102ED00001DD0B4600E04B42002A01DD144600E014
:102EE0005442A34200DB1146026911444FF4902280
:102EF00091FBF2F3016102FB13114FF4B4735943D8
:102F000091FBF2F100EE101AB8EEC00A80ED050A4E
:102F100010BD0000FEF716FAFFF73CFBFFF780F943
:102F2000FFF760F9FFF73CF9FFF7BAF9FFF7ECF9A3
:102F3000FFF708FA24220E490E48FDF721FAC822AD
:102F40000D490E48FDF71CFA0D48FEF7C1FDFFF7CD
:102F50007FFFFDF7BFFAFDF777F94FF4967190FB0D
:102F6000F1F201FB1200074900F596700880FEE7B8
:102F70000C0400200001002030040020400100204B
:102F8000C0000020020000200002FF01FF02005EDE
:102F9000BCE2613FDD83C29C7E20A3FD1F419DC337
:102FA000217FFCA2401E5F01E3BD3E6082DC237DE9
:102FB0009FC1421CFEA0E1BF5D0380DE3C62BEE01B
:102FC000025CDF81633D7C22C09E1D43A1FF461849
:102FD000FAA427799BC584DA3866E5BB5907DB85F7
:102FE0006739BAE406581947A5FB7826C49A653BA9
:102FF000D987045AB8E6A7F91B45C6987A24F8A6DB
:10300000441A99C7257B3A6486D85B05E7B98CD208
:10301000306EEDB3510F4E10F2AC2F7193CD114FB6
:10302000ADF3702ECC92D38D6F31B2EC0E50AFF168
:10303000134DCE90722C6D33D18F0C52B0EE326C9A
:103040008ED0530DEFB1F0AE4C1291CF2D73CA94C8
:103050007628ABF517490856B4EA6937D58B570976
:10306000EBB536688AD495CB2977F4AA4816E9B728
:10307000550B88D6346A2B7597C94A14F6A8742A5A
:10308000C896154BA9F7B6E80A54D7896B350000E6
:10309000891112239B322446AD573665BF74488C84
:1030A000C19D5AAFD3BE6CCAE5DB7EE9F7F881104B
:1030B000080193331A22A5562C47B7753E64C99C64
:1030C000408DDBBF52AEEDDA64CBFFF976E802212A
:1030D0008B30100299132667AF763444BD554AAD44
:1030E000C3BC588ED19F6EEBE7FA7CC8F5D983310B
:1030F0000A2091121803A7772E66B5543C45CBBD24
:1031000042ACD99E508FEFFB66EAFDD874C90442E9
:103110008D5316619F702004A9153227BB364CCE03
:10312000C5DF5EEDD7FC6888E1997AABF3BA8552CA
:103130000C4397711E60A1142805B3373A26CDDEE3
:1031400044CFDFFD56ECE9986089FBBB72AA0663A9
:103150008F7214409D512225AB343006B9174EEFC3
:10316000C7FE5CCCD5DD6AA9E3B8788AF19B87738A
:103170000E6295501C41A3352A24B1163807CFFFA3
:1031800046EEDDDC54CDEBB962A8F99A708B088469
:1031900081951AA793B62CC2A5D33EE1B7F040089B
:1031A000C919522BDB3A644EED5F766DFF7C899432
:1031B00000859BB712A6ADD224C3BFF136E0C1187B
:1031C0004809D33B5A2AE55E6C4FF77D7E6C0AA511
:1031D00083B4188691972EE3A7F23CC0B5D142295B
:1031E000CB38500AD91B666FEF7E744CFD5D8BB5F2
:1031F00002A499961087AFF326E2BDD034C1C3393B
:103200004A28D11A580BE77F6E6EF55C7C4D0CC6D0
:1032100085D71EE597F42880A1913AA3B3B2444A1A
:10322000CD5B5669DF78600CE91D722FFB3E8DD6B1
:1032300004C79FF516E4A9902081BBB332A2C55AFA
:103240004C4BD7795E68E11C680DF33F7A2E0EE790
:1032500087F61CC495D52AA1A3B03882B193466BDA
:10326000CF7A5448DD59622DEB3C700EF91F8FF771
:1032700006E69DD414C5ABB122A0B9923083C77BBA
:103280004E6AD5585C49E33D6A2CF11E780F000662
:1032900010160006101600000000000000000102D9
:1032A00003040607080900000000010203040000EF
:1032B000D03200080000002098000000322E0008E4
:1032C0006833000898000020D0090000422E000852
:1032D00000000000000000000000000000000000EE
:1032E00000000000000000000000000000000000DE
:1032F00000000000000000000000000000000000CE
:1033000000000000000000000000000000000000BD
:1033100000000000000000000000000000000000AD
:10332000000000000000000000000000000000009D
:10333000FFFF000001000507000000000100000081
:1033400000000000000000000000C03FCDCCCC3DDC
:10335000000000000100000010000000000000005C
:083360000024F400000000004D
:04000005080001AD41
:00000001FF
